:100000000C9463000C948B000C948B000C94550999
:100010000C9455090C9455090C948B000C948B008E
:100020000C948B000C948B000C948B000C948B0024
:100030000C948B000C948B000C948B000C948B0014
:100040000C94B3080C948B000C9423090C94FD08B9
:100050000C948B000C948B000C948B000C948B00F4
:100060000C948B000C948B000000000024002700EF
:100070002A0000000008000201000003040700003D
:1000800000000000000000000000230026002900FE
:1000900000000000250028002B00040404040404D0
:1000A0000404020202020202030303030303010227
:1000B00004081020408001020408102001020408F6
:1000C0001020CD09AA0F11241FBECFEFD8E0DEBF4C
:1000D000CDBF13E0A0E0B1E0E8EDF5E202C005908D
:1000E0000D92A234B107D9F725E0A2E4B3E001C034
:1000F0001D92A434B207E1F710E0C2E6D0E004C0DC
:100100002197FE010E94B312C136D107C9F70E94A0
:10011000A90A0C94DF120C940000CF92DF92EF92A8
:10012000FF9210923B0460914504709146048091C7
:100130004704909148040E947A1128E23BE64EE67B
:100140005EE40E94D9106B017C01609143047091C0
:10015000440490E080E00E947A119B01AC01C70149
:10016000B6010E9468102091490421119058FF9017
:10017000EF90DF90CF900895CF92DF92EF92FF92B1
:1001800010923B0460913E0470913F0480914004C2
:10019000909141040E947A1128E23BE64EE65EE42B
:1001A0000E94D9106B017C0160913C0470913D0468
:1001B00090E080E00E947A119B01AC01C701B6017A
:1001C0000E9468102091420421119058FF90EF90F6
:1001D000DF90CF900895833081F028F4813099F03A
:1001E0008230A9F008958730A9F08830C9F08430B2
:1001F000B1F4809180008F7D03C0809180008F7763
:1002000080938000089584B58F7784BD089584B568
:100210008F7DFBCF8091B0008F778093B0000895E1
:100220008091B0008F7DF9CFCF93DF93282F30E0FE
:10023000F901EE58FF4F8491F901E255FF4FD49137
:10024000F901E656FF4FC491CC23A1F081110E9421
:10025000EB00EC2FF0E0EE0FFF1FEA57FF4FA591E8
:10026000B491EC91ED2381E090E009F480E0DF911E
:10027000CF91089580E090E0FACF1F93CF93DF9362
:10028000282F30E0F901EE58FF4F8491F901E25533
:10029000FF4FD491F901E656FF4FC491CC23A9F04A
:1002A000162F81110E94EB00EC2FF0E0EE0FFF1FE4
:1002B000E057FF4FA591B4918FB7F894EC911111CD
:1002C00008C0D095DE23DC938FBFDF91CF911F91C3
:1002D0000895DE2BF8CFCF93DF9390E0FC01E25539
:1002E000FF4F249186569F4FFC0184918823D1F0C3
:1002F00090E0880F991FFC01E859FF4FA591B49138
:10030000FC01E057FF4FC591D49161110EC09FB71A
:10031000F8948C91E22FE0958E238C932881E22330
:10032000E8839FBFDF91CF9108958FB7F894EC9148
:10033000E22BEC938FBFF6CF0F931F93CF93DF93F6
:10034000EC01162F042F1B821A8288EE93E0A0E0A6
:10035000B0E08C839D83AE83BF8388E091E0998376
:1003600088831F8A1E8A198E188E1B8E1A8E1D8EE8
:100370001C8E6E8D6E7F6D7F6E8F6695617081E0D5
:100380006827842F0E943D0161E0802F0E946B014D
:10039000802F90E0FC01E255FF4FE491E88BFC01D7
:1003A000E656FF4FE491F0E0EE0FFF1FE057FF4FDE
:1003B000859194919A8B898B60E0812F0E946B01CB
:1003C0008E8D81FD04C061E0812F0E943D011C875C
:1003D000812F90E0FC01E255FF4FE491ED87FC0195
:1003E000E656FF4FE491F0E0EE0FFF1FEA57FF4F94
:1003F000859194919F878E87DF91CF911F910F9167
:1004000008951F93CF93DF93182FEB0161E00E94B3
:100410006B01209739F460E0812FDF91CF911F911C
:100420000C943D01CF3FD10511F461E0F5CFE12FF0
:10043000F0E0EE58FF4FE491E33031F140F4E13069
:10044000B1F0E230E1F0C038D1057CF7E4CFE7301D
:1004500029F1E83059F1E430B1F7809180008062F1
:1004600080938000D0938B00C0938A0004C084B531
:10047000806884BDC7BDDF91CF911F91089584B579
:10048000806284BDC8BDF7CF809180008068809372
:100490008000D0938900C0938800EDCF8091B00098
:1004A00080688093B000C093B300E5CF8091B00026
:1004B00080628093B000C093B400DDCF8E50806422
:1004C00080937C0080917A00806480937A00809190
:1004D0007A0086FDFCCF8091780090917900089594
:1004E0003FB7F8948091950390919603A09197035C
:1004F000B091980326B5A89B05C02F3F19F001962F
:10050000A11DB11D3FBFBA2FA92F982F8827BC016D
:10051000CD01620F711D811D911D42E0660F771F95
:10052000881F991F4A95D1F708958F929F92AF9295
:10053000BF92CF92DF92EF92FF924B015C010E943B
:1005400070026B017C010E9470026C197D098E099A
:100550009F09683E734081059105A8F321E0821A46
:100560009108A108B10888EEC80E83E0D81EE11CEE
:10057000F11C81149104A104B10429F7FF90EF90BC
:10058000DF90CF90BF90AF909F908F9008952FB73E
:10059000F8946091910370919203809193039091EC
:1005A00094032FBF0895DC01ED91FC910190F0813F
:1005B000E02D0994AF92BF92CF92DF92EF92FF921B
:1005C0000F931F93CF93DF936C017B018B01040F7B
:1005D000151FEB015E01AE18BF08C017D10759F017
:1005E0006991D601ED91FC910190F081E02DC60159
:1005F0000995892B79F7C501DF91CF911F910F9153
:10060000FF90EF90DF90CF90BF90AF900895FC01E6
:10061000538D448D252F30E0842F90E0821B930B67
:10062000541710F0CF96089501970895FC01918D0D
:10063000828D981761F0A28DAE0FBF2FB11D5D9610
:100640008C91928D9F5F9F73928F90E008958FEFB2
:100650009FEF0895FC01918D828D981731F0828D66
:10066000E80FF11D858D90E008958FEF9FEF0895BD
:10067000FC01918D228D892F90E0805C9F4F821B21
:1006800091098F73992708958DE993E00E943803AB
:1006900021E0892B09F420E0822F089580E090E08A
:1006A000892B29F00E94440381110C9400000895C5
:1006B000FC01A48DA80FB92FB11DA35ABF4F2C91D7
:1006C000848D90E001968F739927848FA689B789CE
:1006D0002C93A089B1898C91837080648C93938DC5
:1006E000848D981306C00288F389E02D80818F7D68
:1006F00080830895EF92FF920F931F93CF93DF9320
:10070000EC0181E0888F9B8D8C8D98131AC0E8894D
:10071000F989808185FF15C09FB7F894EE89FF891C
:100720006083E889F98980818370806480839FBFBA
:1007300081E090E0DF91CF911F910F91FF90EF90BA
:100740000895F62E0B8D10E00F5F1F4F0F731127CA
:10075000E02E8C8D8E110CC00FB607FCFACFE88905
:10076000F989808185FFF5CFCE010E945803F1CF32
:10077000EB8DEC0FFD2FF11DE35AFF4FF0829FB779
:10078000F8940B8FEA89FB8980818062CFCFCF9369
:10079000DF93EC01888D8823B9F0AA89BB89E889A9
:1007A000F9898C9185FD03C0808186FD0DC00FB64F
:1007B00007FCF7CF8C9185FFF2CF808185FFEDCFCD
:1007C000CE010E945803E9CFDF91CF910895CF93D6
:1007D000DF93EC018A859B85AC85BD858E839F83E5
:1007E000A887B9870E94C7026A837B838C839D8315
:1007F00081E089838883DF91CF910895CF93DF9340
:10080000EC018E819F81A885B9858A839B83AC8307
:10081000BD830E94C7026A877B878C879D8781E0A2
:1008200089838883DF91CF91089520919B03309134
:100830009C032817390771F49091990380919A03CA
:10084000981741F0E0919903F0E0EE5BFC4F808156
:1008500090E008958FEF9FEF08950895EF92FF9233
:100860000F931F93CF93DF93DC015C96ED90FC9088
:100870005D97E114F10479F481E090E013969C9384
:100880008E93129790E080E0DF91CF911F910F91AE
:10089000FF90EF9008955196ED91FC9152975096EC
:1008A0008C915097982F90950FB75E962C915E97EC
:1008B000122F127021FD6095F8942081112319F1F7
:1008C000282B2083E7012197F1F728E0462F50E0FD
:1008D000308160FF1AC0382B3083E7012197F1F790
:1008E000BA0175956795215089F7112381F08081B0
:1008F000892380830FBF5C968D919C910197F1F7BE
:1009000081E090E0C1CF2923DCCF3923E5CF90816E
:10091000892BEFCF20919B0330919C032817390737
:1009200061F480919A032091990390E0805C9F4F3D
:10093000821B91098F739927089590E080E00895B4
:1009400020919B0330919C0328173907B9F49091AB
:10095000990380919A03981789F0E0919903F0E048
:10096000EE5BFC4F80812091990330E02F5F3F4F79
:100970002F7333272093990390E008958FEF9FEF13
:100980000895E0919B03F0919C03E817F90769F43F
:10099000A389B4899C918589809589238C93109231
:1009A0009C0310929B0381E0089580E00895CF930B
:1009B000DF93EC011B8E1A8E198E188E1F8A1E8AE9
:1009C0008DE991E09D8F8C8F8C858631E0F52DEB44
:1009D00030E03F8B2E8B2BE931E0398F288F2CE2D2
:1009E00031E03B8F2A8F90916800883008F44EC028
:1009F00021E08E3008F420E081E001C0880F2A95C4
:100A0000EAF7892B809368009C852DE630E09830CA
:100A100050F02BE630E09E3030F02CE630E096319E
:100A200010F030E020E03C8B2B8B292F30E0983009
:100A300078F581E001C0880F9A95EAF78D8B8C8D4F
:100A40009D8D0197F1F78A8D9B8D892BE1F0809127
:100A50009B0390919C03C817D907A9F0009711F048
:100A60000E94C1048E8D8E7F8E8F10929A031092F9
:100A70009903D0939C03C0939B03EB89FC898081ED
:100A80009D89892B8083DF91CF91089584E0B9CF30
:100A90009E3040F42850310981E001C0880F2A952A
:100AA000EAF7CCCF2E503109F7CF90E080E00895DF
:100AB0002F923F924F925F926F927F928F929F926E
:100AC000AF92BF92CF92DF92EF92FF920F931F935C
:100AD000CF93DF93D82FC92F8B010E94C80F24E634
:100AE00030E040E050E00E94361049019B01AC012B
:100AF00060E876E988E990E00E94A3126B017C012E
:100B0000F80191828082ED2FFC2F2191822F022EFD
:100B1000000C990BC0970A97C0F32E3239F51F01CC
:100B200080E8882E86E9982E88E9A82EB12C9AE0D4
:100B3000492E512C612C712CF101C1911F010C2EF9
:100B4000000CDD0BE097CA30D10580F4C501B4017B
:100B5000A30192010E94361049015A01DE010E9450
:100B60002E10C60ED71EE81EF91EE6CFA5E0B0E097
:100B7000A70196010E9423106F5F7F4F8F4F9F4FF9
:100B800023E030E040E050E00E943610F80122837C
:100B90003383448355831682DF91CF911F910F9148
:100BA000FF90EF90DF90CF90BF90AF909F908F908D
:100BB0007F906F905F904F903F902F9008951F937C
:100BC000CF93DF93EC0118811D3209F42196CE01F9
:100BD0000E94C80F9B01AC01A4E6B0E00E94231064
:100BE000AB01BC01FE012991822F022E000C990B52
:100BF000C0970A97B8F32E3231F58181082E000C88
:100C0000990BC0978A309105F0F4AAE0A89F900153
:100C1000A99F300D1124C901330FAA0BBB0B480F3C
:100C2000591F6A1F7B1F8281082E000C990BC097E9
:100C30008A30910540F4092E000CAA0BBB0B480F1B
:100C4000591F6A1F7B1F1D3239F4709560955095AE
:100C500041955F4F6F4F7F4FCB01BA01DF91CF912D
:100C60001F910895FB0101900020E9F73197AF0132
:100C7000461B570BDC01ED91FC910280F381E02DC6
:100C800009948F929F92AF92BF92EF92FF920F932F
:100C90001F93CF93DF93CDB7DEB7A1970FB6F8942C
:100CA000DEBF0FBECDBF7C01FA01CB0119A22230FD
:100CB00008F42AE08E010F5D1F4F822E912CB12C7B
:100CC000A12CBF01A50194010E943610F901CA01AF
:100CD0006A300CF5605DD8016E938D01232B242BB7
:100CE000252B79F790E080E0109721F0BD01C70136
:100CF0000E943206A1960FB6F894DEBF0FBECDBF9C
:100D0000DF91CF911F910F91FF90EF90BF90AF9027
:100D10009F908F900895695CDECFCF92DF92EF9223
:100D2000FF920F931F93CF93DF936B01770FEE0822
:100D3000FF08F7FE1BC0EC016DE20E94D3028C019C
:100D400044275527BA014C195D096E097F092AE02D
:100D5000CE010E944106800F911FDF91CF911F911C
:100D60000F91FF90EF90DF90CF9008952AE0B701A8
:100D7000A601DF91CF911F910F91FF90EF90DF902F
:100D8000CF900C9441062F923F924F925F926F92B8
:100D90007F928F929F92AF92BF92CF92DF92EF920B
:100DA000FF921F93CF93DF93EC016A017B01722EB8
:100DB000AB019601CB01B6010E949E1268E271E080
:100DC000811126C046015701E894B7F82FEF3FEF95
:100DD0004FE75FE7C501B4010E949E1281110CC06C
:100DE0002FEF3FEF4FE75FE7C501B4010E94D4103A
:100DF0006CE271E0181664F02FEF3FEF4FE75FE40D
:100E0000C701B6010E942C121816B4F460E371E019
:100E1000CE01DF91CF911F91FF90EF90DF90CF90A7
:100E2000BF90AF909F908F907F906F905F904F900A
:100E30003F902F900C9432062FEF3FEF4FE75FEC7F
:100E4000C701B6010E94D41087FDE0CF20E030E05A
:100E5000A901C701B6010E94D410312C212C87FFB3
:100E600009C06DE2CE010E94D3021C01F7FAF09492
:100E7000F7F8F09410E060E070E080E09FE3711616
:100E800041F020E030E040E251E40E94D9101F5FC1
:100E9000F6CFA70196010E9468102B013C010E9429
:100EA0004B114B015C012AE0BC01A401CE010E9460
:100EB00041067C01E20CF31C1123C1F1C501B40110
:100EC0000E947A119B01AC01C301B2010E9467101C
:100ED0004B015C016EE2CE010E94D302E80EF91EC6
:100EE000115020F120E030E040E251E4C501B401AE
:100EF0000E9431122B013C010E944B114B01B12C7D
:100F0000A12C2AE0B501A401CE010E944106E80E01
:100F1000F91EC501B4010E947A119B01AC01C30105
:100F2000B2010E9467104B015C01DACFC701DF916B
:100F3000CF911F91FF90EF90DF90CF90BF90AF9037
:100F40009F908F907F906F905F904F903F902F90E9
:100F500008950F931F93CF93DF93EC010E94C30674
:100F60008C0164E371E0CE010E943206800F911F74
:100F7000DF91CF911F910F9108950F931F93CF93FE
:100F8000DF93EC010E9432068C0164E371E0CE0134
:100F90000E943206800F911FDF91CF911F910F9118
:100FA00008950C943206CF93DF93C2E0D0E067E35C
:100FB00071E085E295E00E94BD076CE471E086E097
:100FC00095E00E94D10760ED77E080E090E00E941C
:100FD00095026FE571E086E095E00E94D10764E636
:100FE00071E085E295E00E94BD0780913B046FE6C9
:100FF00071E0882309F463C085E295E00E94D1077F
:1010000063E871E085E295E00E94D1076EE871E047
:1010100085E295E00E94D1070E94BC00AB01BC01B3
:1010200022E030E085E295E00E94A9076AE971E0DC
:1010300085E295E00E94BD070E948D00AB01BC01D6
:1010400022E030E085E295E00E94A90769EA71E0BC
:1010500085E295E00E94D1070E94BC00AB01BC0173
:1010600022E085E295E00E94C3066AED71E085E228
:1010700095E00E94D1070E948D00AB01BC0122E0E7
:1010800030E085E295E00E94A9076AE186E095E0FC
:101090000E942E0460ED77E080E090E00E949502CF
:1010A000219751F4109287036CED71E08DE993E084
:1010B000DF91CF910C94BD07C1E0D0E078CF85E2FD
:1010C00095E00E94D10763E871E085E295E00E9417
:1010D000D1076EE871E085E295E00E94D10740916A
:1010E0008C0350918D0360918E0370918F0322E0E9
:1010F00030E085E295E00E94A9076AE971E085E2A7
:1011000095E00E94BD07409188035091890360914A
:101110008A0370918B0322E030E085E295E00E9423
:10112000A90769EA71E085E295E00E94D107409144
:101130008C0350918D0360918E0370918F0322E098
:1011400085E295E00E94C3066AED71E085E295E0D4
:101150000E94D107409188035091890360918A03CE
:1011600070918B038CCF1F920F920FB60F921124A8
:101170002F933F938F939F93AF93BF93809191034E
:1011800090919203A0919303B091940330919003B6
:1011900023E0230F2D3758F50196A11DB11D209393
:1011A00090038093910390939203A0939303B09341
:1011B00094038091950390919603A0919703B09129
:1011C00098030196A11DB11D8093950390939603FA
:1011D000A0939703B0939803BF91AF919F918F9184
:1011E0003F912F910F900FBE0F901F90189526E8FA
:1011F000230F0296A11DB11DD2CF1F920F920FB6E1
:101200000F9211242F933F934F935F936F937F938C
:101210008F939F93AF93BF93EF93FF938DE993E0E9
:101220000E945803FF91EF91BF91AF919F918F91D1
:101230007F916F915F914F913F912F910F900FBED2
:101240000F901F9018951F920F920FB60F921124B6
:101250002F938F939F93EF93FF93E091AD03F091C2
:10126000AE038081E091B303F091B40382FD1BC013
:1012700090818091B6038F5F8F732091B70382179F
:1012800041F0E091B603F0E0E356FC4F958F809378
:10129000B603FF91EF919F918F912F910F900FBE09
:1012A0000F901F9018958081F4CF1F920F920FB668
:1012B0000F9211242F933F934F935F936F937F93DC
:1012C0008F939F93AF93BF93EF93FF93E0919B0313
:1012D000F0919C03309749F0A685B7858585968D5A
:1012E00091FF14C09C918923A1F4FF91EF91BF91CC
:1012F000AF919F918F917F916F915F914F913F91AE
:101300002F910F900FBE0F901F9018959C918923DD
:1013100061F7A389B4899C918589809589238C93F1
:10132000868997890197F1F7608D718DA685B785BC
:10133000558538E020E0CB010197F1F7822F90E04E
:1013400095958795282F4C91452309F020683150B9
:1013500091F7868D81FD209580919A0390E001960A
:101360008F73992730919903381799F0A0919A03B8
:10137000B0E0AE5BBC4F2C9380939A03828D938D2B
:101380000197F1F7A389B4898C919589892B8C9366
:10139000ACCF868D8160868FF1CFEDE9F3E01382CB
:1013A000128288EE93E0A0E0B0E084839583A68368
:1013B000B7838AE191E09183808385EC90E0958703
:1013C000848784EC90E09787868780EC90E0918B0F
:1013D000808B81EC90E0938B828B82EC90E0958BFC
:1013E000848B86EC90E0978B868B118E128E138EF9
:1013F000148E42E063E085E295E00E949C0147E0A4
:1014000066E086E095E00E949C0149E068E087EE96
:1014100094E00E949C01EAE3F4E0108211821382BE
:101420001282148215821682178210861286118605
:1014300013861486158616861786118A108A128AD4
:10144000138A148A158A168A108E178A118E128EA4
:10145000138E148E158E12A213A214A215A216A218
:1014600017A210AA11AA12AA13AA14AA15AA16AE94
:1014700017AE10927E0410927F0410928004109296
:101480008104109286041092870410928C041092AA
:101490008D0410928E0410928F0410929404109276
:1014A000950410929A0410929B0410929C0410923E
:1014B0009D041092A2041092A3041092A80410920A
:1014C000A9041092AA041092AB041092B0041092D6
:1014D000B1041092B6041092B7041092B80410929E
:1014E000B9041092BE041092BF0482E08093CF042E
:1014F0001092D0041092D1041092D2041092D4040D
:101500001092D3041092D6041092D5041092D704EE
:101510001092D8041092D9041092DA041092DB04CD
:101520001092DC041092DD041092DE041092DF04AD
:101530001092E0041092E1041092E2041092E3048D
:101540001092E4041092E5041092E6041092C00494
:101550000895789484B5826084BD84B5816084BD2B
:1015600085B5826085BD85B5816085BD80916E0041
:10157000816080936E001092810080918100826072
:1015800080938100809181008160809381008091AF
:1015900080008160809380008091B100846080939E
:1015A000B1008091B00081608093B00080917A009A
:1015B000846080937A0080917A00826080937A00C0
:1015C00080917A00816080937A0080917A008068AF
:1015D00080937A001092C100E091AD03F091AE03C8
:1015E00082E08083E091A903F091AA031082E09148
:1015F000AB03F091AC038FEC80831092B503E091C4
:10160000B103F091B20386E08083E091AF03F091E3
:10161000B003808180618083E091AF03F091B003DB
:10162000808188608083E091AF03F091B003808176
:1016300080688083E091AF03F091B00380818F7D5B
:10164000808385E295E00E94D70487EE94E00E94B3
:10165000D70486E095E00E94D70460E08EE00E9407
:101660006B0160E08FE00E946B0161E089E00E9405
:101670006B0161E08AE00E946B0161E08BE00E94F7
:101680006B0160E084E00E946B0160E085E00E94F5
:101690006B0180E9882E99249394A12CB12C11E040
:1016A0008EE00E945E027C018FE00E945E02EC01EF
:1016B00020E931E0D7010E94B9122FEF33E040E07A
:1016C00050E00E94041029013A01190120E931E09B
:1016D000DE010E94B9122FEF33E040E050E00E949B
:1016E000041069017A01E901A1E0BFEFA3019201B1
:1016F0000E943110A50194010E940410CA01B90191
:1017000061507F4F8F4F9F4F89E00E940102A1E0FF
:10171000BFEFA70196010E943110A50194010E941C
:101720000410CA01B90161507F4F8F4F9F4F8AE06B
:101730000E9401022DE2421621E0520634F060E0E0
:101740008DE2C81681E0D8060CF461E08BE00E94BF
:101750003D01809102019091030128163906A9F0FC
:1017600066E072E08DE993E00E94D107B2018DE955
:1017700093E00E948D0667E172E08DE993E00E949C
:10178000BD075092030140920201809100019091A7
:101790000101C817D907A9F06BE172E085E295E075
:1017A0000E94D107B60185E295E00E948D0667E1AF
:1017B00072E085E295E00E94BD07D0920101C092DF
:1017C000000164E670E080E090E00E94950287EE00
:1017D00094E00E948A04892B09F4BBC287EE94E04E
:1017E0000E94A004082F8091D7049091D804A09162
:1017F000D904B091DA040196A11DB11D8093D704DC
:101800009093D804A093D904B093DA04043209F475
:101810007DC2E091D10405320CF0BCC00A3019F051
:101820000D3009F081C2EF3008F031C1F0E0E05432
:10183000FB4F10828091BF04882309F436C12091A8
:10184000C004822F022E000C990B3FEB320F363072
:1018500008F0ACC0C7978295807F9091C104292F72
:10186000092E000C330B4FEB490F463008F0A6C091
:1018700027533109820F9091BE048913F5C08091DE
:10188000E3049091E404A091E504B091E60401968C
:10189000A11DB11D8093E3049093E404A093E5049B
:1018A000B093E6048091D204882399F08091DB0400
:1018B0009091DC04A091DD04B091DE040196A11D9D
:1018C000B11D8093DB049093DC04A093DD04B093FE
:1018D000DE04C091CF04CC2309F479C0C130A1F556
:1018E0008CE594E00E94FE038AE694E00E94FE03E9
:1018F0008091D204882341F187E0EAE4F4E0ACE38C
:10190000B4E001900D928A95E1F787E0E1E5F4E01B
:10191000A3E4B4E001900D928A95E1F70E94C7021A
:10192000609358047093590480935A0490935B0415
:10193000C0933B04C0933A0488E794E00E94E70315
:1019400086E894E00E94E703C091D504D091D604C4
:10195000209709F49CC0E091D504F091D60466A1CB
:1019600077A18EA19FA10E94C012892B09F08FC080
:10197000BE01CE0140960E94C9120E94C70268A310
:1019800079A38AA39BA391E09DA39CA30AA4DBA5B2
:10199000C02DDECF0A3209F446CF0C3209F0C4C1A3
:1019A0008091BE0480278093BE043DCF215626300F
:1019B00018F4875591094FCFC0974DCF9156963067
:1019C00018F42755310956CF2053310953CF8AE6F1
:1019D00094E00E94FE038091D204882321F187E0E5
:1019E000EAE4F4E0ACE3B4E001900D928A95E1F70B
:1019F00087E0E1E5F4E0A3E4B4E001900D928A957C
:101A0000E1F70E94C70260935804709359048093D1
:101A10005A0490935B0410933B0410933A0484E9B6
:101A200094E00E94E7038091AC049091AD04A091F2
:101A3000AE04B091AF048093A8049093A904A0933E
:101A4000AA04B093AB040E94C7026093A4047093ED
:101A5000A5048093A6049093A7041093A304109365
:101A6000A20480EB94E06ECF8091DF049091E004BB
:101A7000A091E104B091E2040196A11DB11D8093F3
:101A8000DF049093E004A093E104B093E20480911A
:101A9000D0048F5F8093D0041092D10481E00A3289
:101AA00009F080E08093BF0492CE9091D004911110
:101AB00042C06BE272E080EC94E00E94C012892B7D
:101AC00041F061E372E080EC94E00E94C012892B47
:101AD000D9F41093CF048091D3049091D4049093BF
:101AE000D6048093D504C091D504D091D604209714
:101AF00071F260EC74E08EA19FA10E94C01297FF6A
:101B000021C28AA59BA5EBCF67E372E080EC94E04D
:101B10000E94C012892B41F06DE372E080EC94E0EA
:101B20000E94C012892B19F41092CF04D4CF22E066
:101B30002093CF04D0CFE091CF04E23009F448C025
:101B40008091C004882309F443C020E2E29FF001A1
:101B50001124E92B3197E932F10508F039C0ED5431
:101B6000F24F0C94B312DC0D190E200E270E2A0E24
:101B7000580E5F0E6C0E790EE80DE80DE80DE80DBD
:101B8000E80DE80DE80DE80DE80DE80DE80DE80DAD
:101B9000E80DE80DE80DE80DE80DE80DE80DE80D9D
:101BA000E80DE80DE80DDC0D130E190E200E270EC2
:101BB0002A0E310E3E0E4B0E80EC94E00E94DF05A3
:101BC0006093700470937104809372049093730413
:101BD000C091D504D091D604E090D004209709F4A8
:101BE00056CFE091D504F091D60466A177A18EA1DD
:101BF0009FA10E94C012892B09F049CF28A539A5C1
:101C0000F12CE216F3060CF442CF2E153F0539F401
:101C100040E150E060EC74E0CE010E94D0120AA4D2
:101C2000DBA5C02DD9CF91E0813409F445C090E007
:101C300043C06AE474E080EC94E00E945805C8CF89
:101C400091E0833509F090E090935004C1CF61E5B5
:101C500074E0F1CF91E0873509F090E0909357045C
:101C6000B7CF80EC94E00E94DF056093820470930C
:101C700083048093840490938504AACF80EC94E03D
:101C80000E94DF0560939004709391048093920406
:101C9000909393049DCF80EC94E00E94C80F6093D2
:101CA000620470936304809364049093650490CFFE
:101CB00091E081330CF4BBCF9093D20489CF80ECB8
:101CC00094E00E94C80F6093AC047093AD048093BD
:101CD000AE049093AF047CCF80EC94E00E94DF05CB
:101CE0006093BA047093BB048093BC049093BD04CA
:101CF0006FCF80EC94E00E94DF0560939E047093A8
:101D00009F048093A0049093A10462CF1092D10409
:101D10001092D0041092BE0482E08093CF041092FF
:101D2000BF041092D20453CDEE3040F481E08E0F08
:101D30008093D104F0E0E054FB4F00838091BF0416
:101D4000811145CD8091BE04F82EF026F092BE049C
:101D50003ECD80913B04882309F4C3C00E94BC009F
:101D600060938C0370938D0380938E0390938F0305
:101D70000E948D00609388037093890380938A0387
:101D800090938B0362E772E08DE993E00E94D107A4
:101D900040918C0350918D0360918E0370918F035D
:101DA00026E030E08DE993E00E94A90765E872E043
:101DB0008DE993E00E94D1074091880350918903F7
:101DC00060918A0370918B0326E030E08DE993E007
:101DD0000E94A90766E371E08DE993E00E94BD07C8
:101DE00084E00E9414010197A1F48091870381117E
:101DF00010C061E972E08DE993E00E94BD07109385
:101E000087030E94D30768EE73E080E090E00E94B1
:101E1000950285E00E94140120918603019709F044
:101E20007DC0211112C00E94C7026093820370938B
:101E300083038093840390938503109386036BEA56
:101E400072E08DE993E00E94BD070E94C702C09036
:101E50008203D0908303E0908403F09085036C1993
:101E60007D098E099F09683B7B4081059105A0F0A3
:101E700080918703811110C060ED72E08DE993E0DD
:101E80000E94BD07109387030E94D30768EE73E09A
:101E900080E090E00E94950284E00E941401892B6A
:101EA00069F485E00E941401892B41F410928703A4
:101EB0006DE173E08DE993E00E94BD0764E670E098
:101EC00080E090E00E94950280E090E0892B09F488
:101ED000E7CB0E944403882309F4E2CB0E94000070
:101EE000DFCB63E472E08DE993E00E94BD076AE610
:101EF00072E08DE993E00E94D10740918C035091EC
:101F00008D0360918E0370918F0326E030E08DE9A0
:101F100093E00E94A9076DE772E04ACF222309F4FB
:101F2000BBCF6AEF72E08DE993E00E94BD0710928B
:101F300086031092820310928303109284031092FE
:101F40008503AACF892B09F4A2CD1092D604109252
:101F5000D5049DCDCF93DF93C8E0D1E0D093E804C2
:101F6000C093E70487EE94E00E94C104D093070574
:101F7000C093060586E095E00E94C104D093260533
:101F8000C093250585E295E0DF91CF910C94C104C3
:101F90001F93FC0199278827BC01E8941191103206
:101FA000E9F3193010F01E30C8F31B3251F01D3226
:101FB00049F4689406C00E94EF0F610F711D811DE6
:101FC000911D119110531A30B0F33EF49095809505
:101FD000709561957F4F8F4F9F4F1F910895592F97
:101FE000482F372F262F660F771F881F991F660FE0
:101FF000771F881F991F620F731F841F951F660F1D
:10200000771F881F991F0895052E97FB1EF40094D3
:102010000E941B1057FD07D00E94361007FC03D00A
:102020004EF40C941B1050954095309521953F4FE0
:102030004F4F5F4F089590958095709561957F4FB4
:102040008F4F9F4F08950E945810A59F900DB49FE9
:10205000900DA49F800D911D11240895B7FF0C943D
:1020600023100E942310821B930B0895A1E21A2EC5
:10207000AA1BBB1BFD010DC0AA1FBB1FEE1FFF1F2C
:10208000A217B307E407F50720F0A21BB30BE40B7C
:10209000F50B661F771F881F991F1A9469F76095C3
:1020A0007095809590959B01AC01BD01CF0108957D
:1020B000A29FB001B39FC001A39F700D811D112489
:1020C000911DB29F700D811D1124911D08955058CE
:1020D000BB27AA270E947F100C94F2110E94E411E2
:1020E00038F00E94EB1120F039F49F3F19F426F4E8
:1020F0000C94E1110EF4E095E7FB0C94DB11E92F51
:102100000E94031258F3BA176207730784079507F2
:1021100020F079F4A6F50C9425120EF4E0950B2E20
:10212000BA2FA02D0B01B90190010C01CA01A00129
:102130001124FF27591B99F0593F50F4503E68F184
:102140001A16F040A22F232F342F4427585FF3CFC5
:10215000469537952795A795F0405395C9F77EF496
:102160001F16BA0B620B730B840BBAF09150A1F0DF
:10217000FF0FBB1F661F771F881FC2F70EC0BA0F65
:10218000621F731F841F48F4879577956795B795ED
:10219000F7959E3F08F0B0CF9395880F08F09927E8
:1021A000EE0F9795879508950E94B71108F481E086
:1021B00008950E94ED100C94F2110E94EB1158F05A
:1021C0000E94E41140F029F45F3F29F00C94DB11E8
:1021D00051110C9426120C94E1110E94031268F321
:1021E0009923B1F3552391F3951B550BBB27AA27D0
:1021F00062177307840738F09F5F5F4F220F331F0A
:10220000441FAA1FA9F335D00E2E3AF0E0E832D0D1
:1022100091505040E695001CCAF72BD0FE2F29D0D4
:10222000660F771F881FBB1F261737074807AB07A6
:10223000B0E809F0BB0B802DBF01FF2793585F4F1B
:102240003AF09E3F510578F00C94DB110C94261265
:102250005F3FE4F3983ED4F3869577956795B795FD
:10226000F7959F5FC9F7880F911D9695879597F908
:102270000895E1E0660F771F881FBB1F6217730781
:102280008407BA0720F0621B730B840BBA0BEE1F96
:1022900088F7E09508950E940B1288F09F5798F0F8
:1022A000B92F9927B751B0F0E1F0660F771F881F5B
:1022B000991F1AF0BA95C9F714C0B13091F00E9475
:1022C0002512B1E008950C942512672F782F8827E6
:1022D000B85F39F0B93FCCF3869577956795B3959C
:1022E000D9F73EF490958095709561957F4F8F4F0B
:1022F0009F4F0895E89409C097FB3EF49095809510
:10230000709561957F4F8F4F9F4F9923A9F0F92FBB
:1023100096E9BB279395F695879577956795B79539
:10232000F111F8CFFAF4BB0F11F460FF1BC06F5F1F
:102330007F4F8F4F9F4F16C0882311F096E911C031
:10234000772321F09EE8872F762F05C0662371F052
:1023500096E8862F70E060E02AF09A95660F771F66
:10236000881FDAF7880F9695879597F90895990F42
:102370000008550FAA0BE0E8FEEF16161706E8074F
:10238000F907C0F012161306E407F50798F0621B70
:10239000730B840B950B39F40A2661F0232B242B45
:1023A000252B21F408950A2609F4A140A6958FEF64
:1023B000811D811D089597F99F6780E870E060E0B6
:1023C00008959FEF80EC089500240A9416161706CE
:1023D00018060906089500240A9412161306140616
:1023E00005060895092E0394000C11F4882352F079
:1023F000BB0F40F4BF2B11F460FF04C06F5F7F4F31
:102400008F4F9F4F089557FD9058440F551F59F017
:102410005F3F71F04795880F97FB991F61F09F3FD1
:1024200079F087950895121613061406551FF2CFFA
:102430004695F1DF08C0161617061806991FF1CF4A
:1024400086957105610508940895E894BB27662771
:102450007727CB0197F908950E94B71108F48FEF01
:1024600008950E9444120C94F2110E94E41138F075
:102470000E94EB1120F0952311F00C94DB110C94C9
:10248000E11111240C9426120E94031270F3959FFF
:10249000C1F3950F50E0551F629FF001729FBB275B
:1024A000F00DB11D639FAA27F00DB11DAA1F649FF7
:1024B0006627B00DA11D661F829F2227B00DA11DAA
:1024C000621F739FB00DA11D621F839FA00D611D30
:1024D000221F749F3327A00D611D231F849F600D51
:1024E000211D822F762F6A2F11249F5750409AF07A
:1024F000F1F088234AF0EE0FFF1FBB1F661F771F06
:10250000881F91505040A9F79E3F510580F00C94D0
:10251000DB110C9426125F3FE4F3983ED4F38695CA
:1025200077956795B795F795E7959F5FC1F7FE2B70
:10253000880F911D9695879597F908950E94B71178
:10254000880B990B0895DB018F939F930E942310B2
:10255000BF91AF91A29F800D911DA39F900DB29F3F
:10256000900D11240895EE0FFF1F0590F491E02DBA
:1025700009940E945810B7FF0895821B930B089589
:10258000FB01DC018D91019080190110D9F3990BA9
:102590000895FB01DC0101900D920020E1F7089500
:1025A000FB01DC014150504048F001900D920020A9
:1025B000C9F701C01D9241505040E0F7089510E066
:1025C000C2E6D0E004C0FE010E94B3122196C336D9
:0825D000D107C9F7F894FFCF11
:1025D800FFFFFFFF000000002E04DA0255052D045E
:1025E8008A04A0041504000000007A03DA02070335
:1025F800C703380316032A036E616E00696E66000E
:102608006F7666000D0A0043616C6C696E67206521
:102618006D657267656E63792E2E2E004154442BCA
:102628007878787878787878787878783B0D004179
:1026380054480D00446973636F6E6E65637400419E
:1026480063636964656E7420446574656374656466
:102658003B20004C6F636174696F6E3B20004C61D6
:10266800746974756465202D20002C204C6F6E678A
:102678006974756465202D200020687474703A2F81
:102688002F6D6170732E676F6F676C652E636F6D4A
:102698002F6D6170733F267A3D3135266D72743D1A
:1026A800797026743D6B26713D002B00456D65726F
:1026B80067656E63792068616E646C65642C20734D
:1026C800797374656D206261636B20746F206E6F1F
:1026D800726D616C2E005269676874204469737466
:1026E800616E63653A200020636D004C6566742056
:1026F80044697374616E63653A20004750524D43D4
:1027080000474E524D4300475047474100474E4708
:102718004741004E6F20475053207369676E616CC4
:102728002C207573696E672064656661756C74200A
:102738006C6F636174696F6E2E0044656661756CB9
:1027480074204C617469747564653A200044656648
:1027580061756C74204C6F6E6769747564653A2096
:10276800004669727374207075736820627574749A
:102778006F6E20707265737365640054696C7420A1
:10278800627574746F6E20707265737365642C2043
:102798007374617274696E672074696D65722E0056
:1027A8005365636F6E642070757368206275747406
:1027B8006F6E207072657373656420666F72203364
:1027C800207365636F6E64732E0054696C742062A5
:1027D8007574746F6E2072656C65617365642C2006
:1027E80074696D65722072657365742E00426F742A
:1027F8006820627574746F6E732072656C6561739E
:1028080065642C2073797374656D207265736574C3
:022818002E0090
:00000001FF
